:020000040800F2
:10000000680A0020350200083D0200083F0200088F
:1000100041020008430200084502000800000000F9
:10002000000000000000000000000000470200087F
:1000300049020008000000004B020008A11500085A
:100040004F0200084F0200084F0200084F0200084C
:100050004F0200084F0200084F0200084F0200083C
:100060004F0200084F0200084F0200084F0200082C
:100070004F0200084F0200084F0200084F0200081C
:100080004F0200084F0200084F0200084F0200080C
:100090004F0200084F0200084F0200084F020008FC
:1000A0004F0200084F0200084F0200084F020008EC
:1000B0004F0200084D1700084F0200084F020008C9
:1000C0004F0200084F0200084F0200084F020008CC
:1000D0004F0200084F0200084F0200084F020008BC
:1000E0004F0200084F0200084F02000800F002F81B
:1000F00000F090F80AA090E8000C82448344AAF132
:100100000107DA4501D100F085F8AFF2090EBAE82F
:100110000F0013F0010F18BFFB1A43F0010318473B
:100120006C2300008C230000103A24BF78C878C1EB
:10013000FAD8520724BF30C830C144BF04680C60ED
:10014000704700000023002400250026103A28BF35
:1001500078C1FBD8520728BF30C148BF0B60704739
:100160006E2900F03F81702900F08182662902F03B
:10017000E580652902F0E280672902F0DF806129CD
:1001800002F0DE8003681B0A28BF41F08001692964
:1001900000F0EC80642900F0E980752900F0E68029
:1001A0006F2900F00F82782900F04D82E92900F0D4
:1001B000A981E42900F0A681F52900F0A381EF29A7
:1001C00000F00C82F82900F04C820368DB0928BF9C
:1001D00041F08001632900F04D87732900F05287B8
:1001E000E32900F05D87F32900F062870020704763
:1001F0001FB500F0B3FF04000020002102F088F8D2
:10020000401C60600020002102F06CF8E0601FBD1F
:1002100010B510BD00F074FF1146FFF7E9FF01F0C3
:10022000FBFA01F051F803B4FFF7F2FF03BC01F051
:1002300099F800000948804709480047FEE7FEE7B3
:10024000FEE7FEE7FEE7FEE7FEE7FEE7FEE7FEE786
:1002500004480549054A064B70470000E5160008AA
:10026000ED00000868040020680A002068060020ED
:10027000680600200FB41CB5084B06AA7B446946EB
:100280000090059800F0C7F804460020694600F089
:10029000D5F820461CBC5DF814FB0000BD01000031
:1002A00070477047704770B5044685690068C1069D
:1002B00001D5302600E02026C00707D070BDD4E964
:1002C000012130469047206A401C20626D1EF6D501
:1002D00070BD70B5044685690078C00707D170BD50
:1002E000D4E9012120209047206A401C20626D1E25
:1002F000F6D570BD09684A0501D540B27047C905F9
:10030000FCD500B2704709684A0501D5C0B27047F4
:10031000C905FCD580B2704770B50C460546012A68
:1003200005D02878800600D5EA69002302E0012381
:1003300005E05B1C934202D2E05C0028F9D1A86979
:10034000E618C01AA861286A184428622846FFF7F0
:10035000AAFF04E0D5E9012114F8010B9047B4424B
:10036000F8D32846FFF7B5FF70BD00002DE9F04136
:100370000646002410687529314616A510D0FFF7EF
:10038000B9FF002802DA404213A507E031688A0766
:1003900001D512A502E0490704D511A5012401E009
:1003A000FFF7B1FF00210A2206F1240709E0B0FBA4
:1003B000F2FCB0FBF2F302FB1C003030785418461C
:1003C000491C0028F3D123462A463046BDE8F041B7
:1003D00000F061BA000000002D0000002B000000BA
:1003E0002000000011680268006A530501D50870FA
:1003F0000AE0D30501D5088006E0130603D5C2172D
:10040000C1E9000200E008600120704701694A1C50
:1004100002610878704700B58FB0CDE90131002145
:10042000059105497944CDE903101146684600F06D
:1004300029F90FB000BD0000E5FFFFFF0A6802F8D0
:10044000010B0A60704700002DE9FF5F15468A46E0
:100450000446DFF8AC80F8440027D8E900103E4697
:10046000CDE9001010E03AF816106A4602A800F034
:1004700023FE411C07D02178890603D5E26939188B
:1004800091420DD80744761C2078800602D5E06999
:10049000B84205DDAE42E6DB3AF816000028E2D1AC
:1004A000A069C01BA0612046FFF7FDFED8E900103F
:1004B000CDE90010002017E03AF818106A4602A8AB
:1004C00000F0FAFDB0F1FF3F81460BD000250DF1A1
:1004D000080B05E0D4E901211BF8050090476D1CCD
:1004E0004D45F7D308F10100B0428046E4DB206AB5
:1004F000384420622046FFF7ECFEBDE8FF9F000075
:10050000EA1E00002DE9F0418046D21D22F00702CC
:100510000025D2E90002F52915A614D0011E72F1BA
:10052000000106DA0023D0EB030063EB020211A600
:1005300008E0D8F800108B0701D50FA602E04907A4
:1005400001D50EA601251146002408F1240704E078
:1005500000F05CF930323A55641C50EA0102F7D1E0
:100560002B46324621464046BDE8F04100F093B9A3
:10057000000000002D0000002B0000002000000003
:1005800030B4002100F1240408E002F00705D2088D
:10059000303542EA4372DB086554491C52EA0305D0
:1005A000F3D10468002310A2250708D504F0200425
:1005B0000C4304D0C46901230CA2641EC46130BC86
:1005C00000F069B910B5044621461068FFF79BFE9C
:1005D00002462046BDE810400023D1E7D21D22F09C
:1005E0000701D1E90023CBE7000000003000000044
:1005F000F0B40D460188090502D5214C7C4402E087
:100600001F4C7C440E34002100F1240608E002F067
:100610000F071209E75D42EA03721B097754491C70
:1006200052EA0307F3D102780023120704D5702D94
:1006300006D009B1022311342246F0BC00F02BB9D8
:1006400001231034F8E770B504460D4621461068C2
:10065000FFF759FE024629462046BDE870400023B8
:10066000C6E7D21D22F00703D3E90023C0E70368E1
:10067000126843F0200303600823C3610023B7E737
:100680004C1D00002DE9F05F894604464FF0000A3A
:10069000DFF874B1FB44C0F820A02046E168884729
:1006A000002874D0252806D0D4E901219047206A7B
:1006B000401C2062F1E700265F462046E16888473B
:1006C0002028054607DB312D05D2781910F8200CBB
:1006D00008B10643F1E7B00701D526F00406C4F8D7
:1006E0001CA00027C4F818A02A2D09D0284601F024
:1006F000F1FD38B304EB8708303DC8F8185019E015
:1007000059F8041B204604EB87029161E168884791
:10071000012F054618D1E069002820DA26F02006CE
:100720001DE0D8F8180000EB800005EB40003038E1
:10073000C8F818002046E1688847054601F0CAFD60
:100740000028EED1012F0AD02E2D08D12046E168D5
:1007500088477F1C0546022F46F02006C4DBA069AF
:10076000002803DA404246F00106A061F00701D0FC
:1007700026F010066C2D0BD0682D09D04C2D39D0E9
:100780006A2D35D0742D35D07A2D33D016E038E06F
:10079000E1682F4620468847B842054609D16C2FAC
:1007A00026D04FF48060E16806432046884705461E
:1007B00004E06C2F1AD04FF4807006430DB3A5F1FE
:1007C0004100192802D8203546F400664A462946D9
:1007D000204626604E46FFF7C3FC80B101280BD0AF
:1007E000F61D26F0070000F1080956E74020E4E76F
:1007F0008020D8E70020D6E706F104094DE7284617
:1008000052E7206ABDE8F09FDC1C000030B5B0F173
:100810000A0271F100034FEA900E4EEA817EB0EBBE
:100820000E0061EB91014FEA101E4EEA017E10EBC3
:100830000E0041EB11114FEA102E4EEA016E10EB43
:100840000E0041EB11214FEA104E4EEA014E10EB23
:100850000E0041EB1141401841F100014FEAD00078
:1008600040EA41704FEAD1014FEA810444EA9074B2
:1008700010EB800544EB01046D1944EB0404521B9A
:10088000A3414FF0000348BF0A3200D530BD401CE1
:1008900041F1000130BD2DE9F0470D4699469246E1
:1008A000044600F124080168880604D5E06921F0B7
:1008B0001001216000E00120A84201DD471B00E09B
:1008C0000027A1697A1902EB0900081AA0612078B3
:1008D000C00602D42046FFF7E6FC002608E0D4E973
:1008E00001211AF806009047206A401C761C2062FD
:1008F0004E45F4DB2078C0060AD52046FFF7D3FC2E
:1009000006E0D4E9012130209047206A401C206293
:10091000381EA7F10107F4DC07E0D4E9012118F83B
:1009200005009047206A401C2062281EA5F10105A1
:10093000F3DC2046FFF7CDFC2078000602D502202C
:10094000BDE8F0870120FBE72DE9FF4F0C461E466E
:100950004FF0FF378BB0D2E90001DDF860800A90DC
:100960008A46C1F30A5505B93D46002108464FF0B5
:100970000000BAF1000F00F4400005DA00EB80003F
:100980004FF4400101EA50004FEA9059B9F1010FCC
:1009900000DDB9460A9850EA4A000ED044F61050DD
:1009A000A5F2FF3545432F14B8F1000F1ED0754254
:1009B000291E1EDDC9F100021CE0B8F1010F4FF045
:1009C000000001D0302103E0F24305E02154401C37
:1009D000B042FBDB30460022002121540B99C1F8C4
:1009E0000880C1E900200FB0BDE8F08FBD1B6D1C71
:1009F000DEE74A4600DA694206A800F0F3FB06ABE0
:100A000093E8070003AB83E8070050460A9901F01A
:100A100084F88DE80700A0F500501F380090039877
:100A2000002D0ADD42F21F014A460844002303A9B3
:100A30000390684601F0EEFA09E0A0F500504A463E
:100A40001F38002303A90390684601F0F8FA8DE8E7
:100A500007000004000C03D04FF0FF30410800E015
:100A60001046B8F1000F03D00022009215461EE098
:100A7000751E05D4FFF7CAFE303262556D1EF9D5DA
:100A8000B3460122084302D000227F1C04E02078F4
:100A9000302801D100227F1E002A099784D01DE052
:100AA000112D07DAFFF7B2FE303262556D1C50EAA5
:100AB0000102F5D1084302D00098C8B10EE0002130
:100AC000681E05E0235C625C63542254401E491C8E
:100AD0008142F7DBAB46A81B401E0990002004F8BA
:100AE0000B000B98099AC0F80880C0E9002B7AE740
:100AF00011264FF0000857E72DE9F04F88460446CD
:100B0000D21D22F0070191B0D1E90001CDE90A011F
:100B100001F0CCFB02460B98C00F01D02D2007E05E
:100B20002068810701D52B2002E0202101EAC000C6
:100B3000032A099001D0072A05DB034641462046D7
:100B400000F010FB0BE12078800601D5E06900E0A1
:100B50000620B8F1650F814606D0B8F1660F18D0AF
:100B6000B8F1670F70D131E00020B9F1110F00909A
:100B700001DB112301E009F101030AAA01A90CA874
:100B8000FFF7E2FEDDE90C70002609F1010583465E
:100B900047E001204B4600904FF000470AAA01A908
:100BA0000CA8FFF7D1FEDDE90DB00C995D460026DB
:100BB00010B909F101000D18B9EB050003D4C0F11B
:100BC000FF3609F10105A5EB09002BE0B9F1010F92
:100BD00001DA4FF001090020B9F1110F00904846E9
:100BE00001DD112300E003460AAA01A90CA8FFF7C2
:100BF000ABFEDDE90C704D460026834620780007E9
:100C00000AD4AB4500DA5D4601A8012D04DD411987
:100C100011F8011C302907D04F4502DA17F1040FF3
:100C200004DA012082460FE06D1EEEE7002F02DCA1
:100C3000ED1B3E4403E0781CA84200DD7D1CB81B80
:100C400000F1010A4FF000472078000703D4AA45BD
:100C500001DB4FF0FF3A0021B7F1004F0DF14308DF
:100C60008DF8431024D002202B23002F01DA7F427D
:100C70002D230A21021EA0F1010000DC5FB197FBC9
:100C8000F1FC97FBF1F201FB1C7C17460CF1300CD8
:100C900008F801CDEEE7A8F10100037021880905ED
:100CA00001D5452100E06521A0F1010800F8011CF3
:100CB00009980FA9A1EB0807FF1D00B101204119F8
:100CC00001EBEA70A1693844081A401EA06120783F
:100CD000C00602D42046FFF7E6FA099828B1D4E905
:100CE00001219047206A401C20622078C00622D54E
:100CF0002046FFF7D8FA1EE0002E04DBB34502DDE4
:100D000001A8805D00E03020D4E901219047206AED
:100D1000401C2062761CAAF101005FEA000A0AD199
:100D200000F01CFAC0680168405CD4E901219047DA
:100D3000206A401C2062281EA5F10105DCDC07E0CA
:100D4000D4E9012118F8010B9047206A401C206269
:100D5000381EA7F10107F3DC2046FFF7BAFA03209B
:100D600011B041E62DE9F04F04460D46D21D22F0A8
:100D7000070089B0D0E900974846394601F096FA55
:100D80000246F80F01D02D2307E02068810701D526
:100D90002B2302E0202101EAC0038DF820300BB1A3
:100DA000012000E00020032A824601D0072A04DB4C
:100DB0002946204600F0D6F93FE12078800601D48C
:100DC0000D2500E0E569C7F30A560D2D49DA00212B
:100DD0004FEA175B08464FF00000002F00F4400078
:100DE00007DA00EB80004FF4400100EBD07001EA1D
:100DF00060008115012901DD4FF0FF3100224FEA2B
:100E0000850CBCF1180F06D31346ACF118004FF057
:100E10008052C24003E04FF4801323FA0CF30CF12C
:100E20000C0CBCF1200F04D3ACF1200C09FA0CF02F
:100E300001E007FA0CF000294FF0004801DD18B975
:100E40000FE00ED140450CD319EB02095F4121B9E7
:100E5000404502D19F4329EA0209BBEB175F00D04E
:100E6000761C2088000502D57B48784402E07A4849
:100E70007844193808AA302302F80A30037C0AF1B2
:100E80000101002E0AF1020A53546A4602DC4FF0B7
:100E9000300101E04FF031014FF001088DF80010F2
:100EA00002D0A6F2FF3603E059EA470100D06B4EAC
:100EB000002D02DC2178090704D54FF002082E210D
:100EC0008DF80110C44600210BE0C7F303433F0136
:100ED000C35C491C6D1E02F80830052908F10108A1
:100EE00001DA002DF1DC00210CE000EB1973491C44
:100EF0001B786D1E082902F808304FEA091908F11D
:100F0000010801DA002DF0DC21688B0602D516E01D
:100F1000A8F10108E04505DD02EB080313F8013CE8
:100F2000302BF5D0B8F1000F09DD02EB080313F800
:100F3000013C2E2B03D1090701D4A8F10108002D93
:100F400005DD3E2102F808106D1E08F10108407C05
:100F5000002E02F8080008F1010804DA2D2076427C
:100F600002F8080002E02B2002F808000A214FF4E2
:100F70007A70864208F101080BDB96FBF0F3303300
:100F800002F8083096FBF0F308F1010800FB136645
:100F900001E0642E0CDB642096FBF0F3303302F8A2
:100FA000083096FBF0F308F1010800FB136601E03E
:100FB0000A2E06DB96FBF1F0303002F8080008F14B
:100FC000010896FBF1F001FB1060303002F80800D8
:100FD000A16908F1010808EB050202EB0A00081AF2
:100FE000A0612078C00602D42046FFF75CF9216A90
:100FF00008AE01EB0A00206204E0D4E9012116F8F2
:10100000010B9047BAF1010AF7D22078C00602D549
:101010002046FFF748F96E4609E016F8010B3E2816
:101020000FD0D4E901219047206A401C2062B8F11A
:101030000108F2D22046FFF74CF909B00320BDE8C1
:10104000F08F206A2844206203E0D4E90121302097
:1010500090476D1EEBD3F8E72A15000002FCFFFF56
:1010600010B5436913B1AFF3008001E0FFF754F905
:10107000012010BD127800F124010A7000224A708C
:101080000122EDE711684FF0FF32E9E710B543693F
:1010900013B1AFF3008001E0FFF7D6F9012010BDD6
:1010A000128800F1240182840022C2840122EDE72B
:1010B00011684FF0FF32E9E72DE9F04116460C4682
:1010C000054600F043F8036893F80101012807D0B2
:1010D000FF2C12D8185D80B101202C70BDE8F08182
:1010E000D3F807013246214603F20713C7182846F2
:1010F000BC46BDE8F041002360474FF0FF30EDE70C
:10110000754600F0EBF8AE4605006946534620F000
:101110000700854618B020B5FFF79AF8BDE82040D3
:101120004FF000064FF000074FF000084FF0000BA3
:10113000AC46ACE8C009ACE8C009ACE8C009ACE812
:10114000C00921F007018D467047000010B500F07E
:1011500005F8001D10BD00BFB91100000048704720
:10116000280000202DE9F0411F46044603260168AF
:10117000072A01F4006004DB08B116A505E016A5F6
:1011800003E008B115A500E015A521F010002060CE
:10119000A069C01EA0610FB1401EA0612046FFF7EC
:1011A00082F84FB1D4E9012138469047206A401CAB
:1011B0002062C01C206206E0206AFAE7D4E901211F
:1011C00015F8010B9047761EF8D22046FFF781F8FC
:1011D000BDE8F0814E414E006E616E00494E460002
:1011E000696E66002DE9F047814616468AB035489B
:1011F00078440DC88DE80D0032487844801C03AC5B
:101200000DC884E80D0041F69B300844372190FB5F
:10121000F1F290FBF1F5A5F1800501FB12041B3CF6
:1012200002D56442012000E00020DFF898A080464B
:101230000027FA44AAF1BE0A0EE0E0070AD03246BF
:10124000684607EB470101230AEB810100F0F7FE36
:101250008DE8070064107F1C002CEED1194F7F44ED
:10126000AE3F19E0E80715D007EB04100DF1180A9E
:1012700090E80E008AE80E00C068F04201D198198B
:1012800008903246012306A903A800F0D8FE03AB5C
:1012900083E807006D10641C002DE3D14FF00103BB
:1012A00032466946B8F1000F03A802D000F0B2FE42
:1012B00001E000F0C4FEC9E90001C9F808200AB045
:1012C000BDE8F0873412000010B50446AFF300808B
:1012D0002046BDE81040FEF7A6BF0000004870475A
:1012E000080000204FF0013C50F8042B51F8043B5B
:1012F0009A4221D1A2EB0C03934313EACC1317D1EA
:1013000050F8042B51F8043B9A4215D1A2EB0C0380
:10131000934313EACC130BD150F8042B51F8043B40
:101320009A4209D1A2EB0C03934313EACC13DBD00E
:101330004FF00000704700BFD01A01BAB1FA81F136
:1013400001F0180122FA01F0CB40DBB2C0B2C01AA2
:10135000C1F120012CFA01F3D11A914311EAC31112
:10136000E6D1704701491820ABBEFEE72600020017
:101370007047000080B541F21C01C4F20201086808
:1013800040F00200086040F22841C4F2000140F23F
:10139000CF20088040F22C41C4F200016320088075
:1013A00040F20C41C4F20001088840F001000880BE
:1013B00040F21041C4F20001088820F001000880CA
:1013C0001D2000F0DDF940F20041C4F20001088860
:1013D00040F00100088080BD80B582B00190FFE739
:1013E0000198411E019128B1FFE74FF47A7000F097
:1013F00003F8F5E702B080BD81B00090009840F29C
:101400006441C2F200010860FFE740F26440C2F2AA
:101410000000006808B1FFE7F7E701B0704700007F
:1014200080B500F001F880BD84B0002003900290E8
:1014300041F20001C4F20201086840F48030086003
:10144000FFE741F20000C4F20200006800F400303F
:101450000290039801300390FFE702990020019069
:1014600039B9FFE70398B0F5A06018BF01200190DB
:10147000FFE70198C0070028E3D1FFE741F2000031
:10148000C4F2020000688003002803D5FFE70120B2
:10149000029002E000200290FFE70298012851D15B
:1014A000FFE742F20001C4F20201086840F01000B8
:1014B0000860086820F007000860086840F0020033
:1014C000086041F20401C4F202010091086808605A
:1014D00008680860086840F480600860086820F4C4
:1014E0007C100860086840F4E810086041F20001D0
:1014F000C4F20201086840F080700860FFE741F222
:101500000000C4F2020000688001002801D4FFE757
:10151000F5E741F20401C4F20201086820F003007B
:101520000860086840F002000860FFE741F204002C
:10153000C4F20200006800F00C00082801D0FFE7A8
:10154000F4E700E0FFE704B07047000080B582B028
:10155000009000980138B0F1807F03D3FFE70120AD
:10156000019019E0009801384EF21401CEF200010A
:1015700008604FF0FF300F2100F01AF94EF2180109
:10158000CEF20001002008604EF21002CEF20002FE
:10159000072111600190FFE7019802B080BD0000B3
:1015A00040F26440C2F20000006840B1FFE740F240
:1015B0006441C2F20001086801380860FFE7704723
:1015C00084B0002003900290019041F20400C4F224
:1015D0000200006800F00C0003900398009040B1F6
:1015E000FFE7009804280ED0FFE70098082814D0E1
:1015F00056E040F20001C2F2000141F20020C0F2C8
:101600007A00086056E040F20001C2F2000141F2A7
:101610000020C0F27A0008604CE041F20400C4F2FD
:101620000200016801F470110291006800F480303A
:1016300001900299022000EB91400290019860B95C
:10164000FFE7029840F60011C0F23D01484340F226
:101650000001C2F20001086021E041F20400C4F27E
:1016600002000068800300280CD5FFE7029840F6CE
:101670000011C0F23D01484340F20001C2F20001F6
:1016800008600BE0029841F20021C0F27A01484361
:1016900040F20001C2F200010860FFE7FFE709E045
:1016A00040F20001C2F2000141F20020C0F27A00D3
:1016B0000860FFE741F20400C4F202000068C0B213
:1016C000010942F24040C0F60000405C0390039ADA
:1016D00040F20001C2F200010868D040086004B086
:1016E0007047000080B541F20002C4F202021068A7
:1016F00040F00100106041F20401C4F202010868E8
:101700000023CFF6FF031840086010684FF6FF7300
:10171000CFF6F66318401060106820F48020106047
:10172000086820F4FE00086041F20801C4F20201DA
:101730004FF41F000860FFF773FE4EF60851CEF21B
:1017400000014FF00060086080BD000040F21040D2
:10175000C4F200000088C00780B1FFE740F26801D2
:10176000C2F2000108680130086040F21041C4F282
:101770000001088820F001000880FFE770470000A2
:1017800081B08DF803009DF9030000280ED4FFE717
:101790009DF9031001F01F02012090404A094EF20A
:1017A0000011CEF2000141F82200FFE701B07047BE
:1017B00082B08DF8070000919DF9070000280AD437
:1017C000FFE7009800019DF907104EF20042CEF2AB
:1017D000000288540BE0009800019DF8071001F00A
:1017E0000F014EF61452CEF200028854FFE702B009
:1017F0007047000080B5FFF7E3FE40F20000C2F240
:10180000000000684DF68361C4F21B31A0FB01109B
:10181000800CFFF79BFE80BD80B584B00020039054
:1018200041F21801C4F20201086840F40170086036
:1018300041F21C01C4F20201086840F40030086063
:1018400040F60001C4F2010148F60020C4F2404015
:10185000086040F60C01C4F20101086840F008007D
:10186000086044F20C41C4F20001088842F20C0204
:101870001043088044F20841C4F2000140F6A6601B
:10188000088041F20401C4F20201086840F40040FB
:10189000086042F21041C4F20101086847F23F02B9
:1018A0001043086042F20841C4F20101086840F0A8
:1018B00003000860086840F003000860086840F012
:1018C00007000860FFF796FFFFF754FDFFE700F001
:1018D000FFF840F26041C2F200010968401AB0F519
:1018E0007A7FC0F0F380FFE700F0F2F840F2604149
:1018F000C2F20001086042F23441C4F2010100204A
:1019000008600520FFF768FD42F20841C4F20101BA
:10191000086840F480000860FFE742F20040C4F22B
:10192000010000688007002801D4FFE7F5E742F2D4
:101930004C40C4F20100016840F26C00C2F20000A9
:101940000160026840F27800C2F2000042F2664193
:10195000C0F60001FEF78EFC00200290FFE702991E
:1019600040F27800C2F20000405C60B1FFE70299EB
:1019700040F27800C2F20000405C00F0AFF802983C
:1019800001300290EBE70A2000F0A8F80D2000F0EB
:10199000A5F842F23441C4F201010120086005209B
:1019A000FFF71AFD42F20841C4F20101086840F451
:1019B00080000860FFE742F20040C4F201000068C6
:1019C0008007002801D4FFE7F5E742F24C40C4F25B
:1019D0000100016840F27400C2F200000160026878
:1019E00040F27800C2F2000042F27641C0F60001F7
:1019F000FEF740FC00200190FFE7019940F27800DB
:101A0000C2F20000405C60B1FFE7019940F278004B
:101A1000C2F20000405C00F061F8019801300190D2
:101A2000EBE70A2000F05AF80D2000F057F842F2D8
:101A30003441C4F20101042008600520FFF7CCFC0A
:101A400042F20841C4F20101086840F480000860D5
:101A5000FFE742F20040C4F201000068800700285E
:101A600001D4FFE7F5E742F24C40C4F201000168FF
:101A700040F27000C2F200000160026840F278009B
:101A8000C2F2000042F25041C0F60001FEF7F2FB44
:101A900000200090FFE7009940F27800C2F20000B9
:101AA000405C60B1FFE7009940F27800C2F20000AC
:101AB000405C00F013F8009801300090EBE70A203A
:101AC00000F00CF80D2000F009F8FFE7FFE6000039
:101AD00040F26800C2F200000068704781B08DF8E3
:101AE00003009DF8030044F20441C4F200010880A1
:101AF000FFE744F20040C4F20000008840060028DE
:101B000001D4FFE7F5E744F20041C4F20001088880
:101B100020F04000088001B070475FEA400C08BF29
:101B200091F0000F4FEA8C234FEAC12243EA515152
:101B30004FEA1C5018BF00F5F0404FEA300018BFC4
:101B400041F000415FEA6C5C00F02980BCF1FF3F8E
:101B500008BF40F080407047130C06BF12044FF0DE
:101B6000100C4FF0000C130E04BF12020CF1080C05
:101B7000130F04BF12010CF1040C930F04BF920069
:101B80000CF1020CD30F04BF52000CF1010C1146F2
:101B90004FF00002A0F11F00A0EB0C00704711F005
:101BA000004F08BF704731F000413FF4D5AF0B0C38
:101BB00006BF09044FF0100C4FF0000C0B0E04BFD1
:101BC00009020CF1080C0B0F04BF09010CF1040C05
:101BD0008B0F04BF89000CF1020CCB0F04BF49002E
:101BE0000CF1010CCCF1200322FA03F341EA0301CA
:101BF00002FA0CF2A0EB0C0000F1010070470000AB
:101C000023F07F4720F07F4C80EA030000F0004083
:101C1000ACEB070303F57C5303F1FF032DE9804987
:101C200009B44FEA144324EA03484FEA154B25EA66
:101C30000B4E0FF2042606EB13273E7803FB0667D4
:101C4000C7F5000707FB06F64FEAD64606F102067F
:101C50004FEA543707FB066CCCF1005C4FEA1C4797
:101C60002CEA074C0CFB06F507FB06F404EB1546C3
:101C70004FEA961649085FEA320234BF00204FF05F
:101C800000404FEAD13706FB07FC4FEA1C4C0CFB27
:101C90000BF7D21B03FB0CF761EB07010CFB0EF7F4
:101CA000B0EB074072EB17420CFB08F734BFA2EB16
:101CB0000742B2EB074261EB17414FEA0C444FEA8F
:101CC000910706FB07FC4FEA1C4C0CFB0BF7B0EB33
:101CD000C74072EB573203FB0CF734BFA2EBC7428D
:101CE000B2EBC74261EB57310CFB0EF7B0EBC7000C
:101CF00072EB57720CFB08F734BFA2EBC702B2EBD2
:101D0000C70261EB57714FEA816141EA92114FEAD4
:101D1000826242EA90124FEA806004EBCC04039F97
:101D20004FEAD13706FB07FC4FEA1C4C0CFB0BF7C4
:101D3000D21B03FB0CF761EB07010CFB0EF7B0EBBA
:101D4000074072EB17420CFB08F734BFA2EB0742C7
:101D5000B2EB074261EB17414FEA8C5504EB9C2430
:101D60004FEA910706FB07FC4FEA1C4C0CFB0BF7F4
:101D7000B0EBC74072EB573203FB0CF734BFA2EB5A
:101D8000C742B2EBC74261EB57310CFB0EF7B0EB29
:101D9000C70072EB57720CFB08F734BFA2EBC70207
:101DA000B2EBC70261EB57714FEA816141EA9211D0
:101DB0004FEA826242EA90124FEA806015EB4C25AE
:101DC00044F100044FEAD13706FB07FC4FEA1C4CF4
:101DD0000CFB0BF7D21B03FB0CF761EB07010CFBB1
:101DE0000EF7B0EB074072EB17420CFB08F734BF5D
:101DF000A2EB0742B2EB074261EB17414FEA813198
:101E000041EA92414FEA823242EA90424FEA803000
:101E10004FEA0C7615EB1C1544F1000448EA034325
:101E20004EEA0B484FF0000EB2EB080C71EB0307C3
:101E300024BF624639464EEB0E0E4FF0000B0018E1
:101E4000524149414BEB0B0BB2EB080C71EB030712
:101E50007BF1000B24BF624639464EEB0E0E4FF06D
:101E6000000B0018524149414BEB0B0BB2EB080C35
:101E700071EB03077BF1000B24BF624639464EEB42
:101E80000E0E51EA020718BF46F0010616EB0E7659
:101E900055F1000254F1000103D5BDE88901BDE808
:101EA0000088BDE88901BDE80048B619524141EB00
:101EB0000101A3F10103704780807F7E7D7C7B7AE6
:101EC0007978777676757473727171706F6E6E6DE6
:101ED0006C6C6B6A6A69686867666665646463638C
:101EE00062616160605F5F5E5E5D5D5C5C5B5B5A12
:101EF0005A5959585857575656555555545453537F
:101F000052525251515050504F4F4F4E4E4D4D4DD9
:101F10004C4C4C4B4B4B4A4A4A4949494848484724
:101F20004747474646464545454444444443434362
:101F300043424242424141419C46002B30D477000B
:101F40002BD04FEA37071CB503B44FF010004FF009
:101F50001001BAF1000F06D0BCF1000FDCBF40F059
:101F6000080040F008014FF000000FBCBDE8104031
:101F70000BF1010BBBF1010F08BF5FEA170722BF8E
:101F800012F1010211F101014FF0004143F1000390
:101F900000F0004043EA00007047F9D35708D0E74B
:101FA00046EA06464FEA164613F1400F1FDD13F1CD
:101FB000200FDFBF16430A46002120335B42BED00C
:101FC000C3F1200746EA06464FEA164602FA07F72B
:101FD00046EA070622FA03F2C3F1200701FA07F7DF
:101FE00042EA070221FA03F14FF00003A7E746EAAD
:101FF000020646EA06464FEA164646EA0106BCBF16
:1020000046EA0646360C4FF000034FF000024FF050
:10201000000194E72DE9804C70B49A46934691E80C
:10202000380007C831EA400C48BF34EA430C03D5F6
:10203000FFF7E6FDFFF780FFF0BCBDE8008C2DE95F
:10204000804C70B49A46934691E8380007C810F067
:10205000804F08BF13F0804F03D100F005F8FFF761
:102060006BFFF0BCBDE8008C20F07F4723F07F4C75
:1020700080EA030000F0004007EB0C03A3F57C535B
:10208000A3F1FE0392F0000F00F0B38095F0000F73
:1020900000F077802DE901494FEA114021EA00481C
:1020A0004FEA144624EA064700FB06FC08FB06F646
:1020B00007FB08F818EB06484CEB164C00FB07F73B
:1020C00018EB07484CEB17404FEA124B22EA0B4E35
:1020D0004FEA154625EA06470BFB06FC0EFB06F603
:1020E00007FB0EFE1EEB064E4CEB164C0BFB07F7E8
:1020F0001EEB074E4CEB174B18EB0B0840F10000A2
:1021000018EB0E0B58EB000840F100008F1A4FF04F
:1021100000014FF000063CBFC943661B14BFB5EB7E
:10212000040C00213CBFC943F61B4FEA174427EAC1
:1021300004454FEA1C472CEA074C04FB076205FBE9
:1021400007F70CFB05F616EB074642EB174204FBBC
:102150000CFC16EB0C4642EB1C421BEB060658EB44
:10216000020241414EEA8E0E46EA9E0601D5BDE8C6
:102170000189B619524141EB0101A3F10103BDE808
:1021800001894FEA144524EA05464FEA114721EA3E
:10219000074C05FB07F406FB07F70CFB06F111EBF8
:1021A000074144EB174405FB0CFC11EB0C4144EBDD
:1021B0001C444FEA124722EA074C05FB07F206FBD4
:1021C00007F70CFB06F616EB074642EB174205FB3A
:1021D0000CFC16EB0C4642EB1C456A1854F100014E
:1021E00048BF7047B619524141EB0101A3F1010309
:1021F000704795F0000F37D04FEA114221EA0246AE
:102200004FEA144724EA074C02FB07F106FB07F7E5
:102210000CFB06F414EB074441EB174102FB0CFCEA
:1022200014EB0C4441EB1C414FEA154725EA074CDF
:1022300002FB07F506FB07F70CFB06F616EB074655
:1022400045EB174502FB0CFC16EB0C4645EB1C421C
:10225000121951F1000148BF7047B619524141EBC4
:102260000101A3F1010370474FEA144524EA054632
:102270004FEA114721EA074C05FB07F106FB07F778
:102280000CFB06F212EB074241EB174105FB0CFC7D
:1022900012EB0C4251EB1C414FF0000648BF704757
:1022A000921841EB0101A3F101037047490050EA84
:1022B000C12018BF04204A0D18BF40F0010040F2B1
:1022C000FF72B2EB515F08BF40F00200012808BF67
:1022D0000520704730380A2801D2012070470020BD
:1022E0007047000010B500290AD00878002807D0F0
:1022F00005487844FEF7F6FF002801D0002010BD05
:102300000248784410BD0000BA010000B20100008C
:1023100010B500290AD00878002807D0054878446D
:10232000FEF7E0FF002801D0002010BD02487844ED
:1023300010BD0000AA010000A2010000FEF7DCBBF6
:10234000FEF710BD00000000000000003031323305
:1023500034353637383941424344454640305800D9
:10236000303132333435363738396162636465660B
:102370004030780004000008000000000000000267
:1023800000010000103031323334353637383961CE
:1023900062636465667870003031323334353637C5
:1023A000383941424344454658500000024000003D
:1023B000000000A00000000005400000000000C870
:1023C000000000000C4000000000409C00000000E5
:1023D000194000000020BCBE000000003440000096
:1023E000BFC91B8E00000004B5400000504BCFD089
:1023F0006607E2CF010000006C4100003E8251AA56
:10240000DFEEA73401000000D9420000DCB5A0E2F5
:102410003A301F97FFFFFFFFB4450000FD25A0C81D
:10242000E9A3C14FFFFFFFFFFF3F00000000008056
:1024300000000000FF3F00000000008000000000DE
:102440000000000000000000010203040607080964
:10245000616E616C6F6756616C756520546872655A
:10246000653A20256400616E616C6F6756616C751A
:10247000653A20256400616E616C6F6756616C750A
:10248000652054776F3A202564000000D8250008A5
:10249000000000200400000028010008DC250008DE
:1024A00008000020600A0000440100081C00000031
:1024B00043000000F8FFFFFF0C0000000E000000CA
:1024C0000F0000002E00000010010000430000007B
:1024D000F8FFFFFF00404040404040404040414145
:1024E00041414140404040404040404040404040E9
:1024F0004040404040050202020202020202020283
:10250000020202020220202020202020202020027F
:10251000020202020202909090909090101010100F
:1025200010101010101010101010101010101010AB
:10253000020202020202888888888888080808083F
:10254000080808080808080808080808080808080B
:102550000202020240000000000000000000000033
:10256000000000000000000000000000000000006B
:10257000000000000000000000000000000000005B
:10258000000000000000000000000000000000004B
:10259000000000000000000000000000000000003B
:1025A000000000000000000000000000000000002B
:1025B000000000000000000000000000000000001B
:1025C000000000000000000000000000000000000B
:0C25D000000000000000000000A24A040F
:0400000508000235B8
:00000001FF
